:020000040000FA
:100000000C9462000C948A000C948A000C948A0070
:100010000C948A000C948A000C948A000C948A0038
:100020000C948A000C948A000C948A000C948A0028
:100030000C948A000C948A000C948A000C948A0018
:100040000C9433050C948A000C9401050C94DB0489
:100050000C948A000C948A000C948A000C948A00F8
:100060000C948A000C948A000000000024002700F1
:100070002A0000000000250028002B0000000000DE
:1000800023002600290004040404040404040202DA
:100090000202020203030303030301020408102007
:1000A0004080010204081020010204081020000012
:1000B0000008000201000003040700000000000027
:1000C0000000310811241FBECFEFD8E0DEBFCDBF46
:1000D00011E0A0E0B1E0E2EBF4E102C005900D9286
:1000E000A235B107D9F721E0A2E5B1E001C01D9228
:1000F000AE3FB207E1F710E0C2E6D0E004C02197BE
:10010000FE010E94510AC136D107C9F70E94C205FB
:100110000C94570A0C940000AF92BF92CF92DF92DA
:10012000EF92FF920F931F93CF93DF936C017B01AC
:100130008B01040F151FEB015E01AE18BF08C0173D
:10014000D10759F06991D601ED91FC910190F081B0
:10015000E02DC6010995892B79F7C501DF91CF9173
:100160001F910F91FF90EF90DF90CF90BF90AF90D5
:100170000895FC01538D448D252F30E0842F90E0AD
:10018000821B930B541710F0CF9608950197089592
:10019000FC01918D828D981761F0A28DAE0FBF2F5B
:1001A000B11D5D968C91928D9F5F9F73928F90E0B1
:1001B00008958FEF9FEF0895FC01918D828D981720
:1001C00031F0828DE80FF11D858D90E008958FEF5D
:1001D0009FEF0895FC01918D228D892F90E0805C26
:1001E0009F4F821B91098F739927089581E691E0B3
:1001F0000E94EA0021E0892B09F420E0822F089573
:1002000080E090E0892B29F00E94F60081110C9487
:1002100000000895FC01A48DA80FB92FB11DA35AA9
:10022000BF4F2C91848D90E001968F739927848F16
:10023000A689B7892C93A089B1898C918370806439
:100240008C93938D848D981306C00288F389E02DDA
:1002500080818F7D80830895EF92FF920F931F938B
:10026000CF93DF93EC0181E0888F9B8D8C8D981369
:100270001AC0E889F989808185FF15C09FB7F89475
:10028000EE89FF896083E889F989808183708064C1
:1002900080839FBF81E090E0DF91CF911F910F910C
:1002A000FF90EF900895F62E0B8D10E00F5F1F4F1B
:1002B0000F731127E02E8C8D8E110CC00FB607FC2A
:1002C000FACFE889F989808185FFF5CFCE010E94B8
:1002D0000A01F1CFEB8DEC0FFD2FF11DE35AFF4F1B
:1002E000F0829FB7F8940B8FEA89FB898081806246
:1002F000CFCFCF93DF93EC01888D8823B9F0AA8903
:10030000BB89E889F9898C9185FD03C0808186FDD0
:100310000DC00FB607FCF7CF8C9185FFF2CF80811F
:1003200085FFEDCFCE010E940A01E9CFDF91CF9189
:100330000895833081F028F4813099F08230A9F05B
:1003400008958730A9F08830C9F08430B1F48091E5
:1003500080008F7D03C0809180008F778093800024
:10036000089584B58F7784BD089584B58F7DFBCFC4
:100370008091B0008F778093B00008958091B00095
:100380008F7DF9CFCF93DF93282F30E0F901E2552D
:10039000FF4F8491F901E656FF4FD491F901EA57D6
:1003A000FF4FC491CC23A1F081110E949901EC2F41
:1003B000F0E0EE0FFF1FE458FF4FA591B491EC91D0
:1003C000ED2381E090E009F480E0DF91CF91089582
:1003D00080E090E0FACF1F93CF93DF93282F30E097
:1003E000F901E255FF4F8491F901E656FF4FD49190
:1003F000F901EA57FF4FC491CC23A9F0162F8111C0
:100400000E949901EC2FF0E0EE0FFF1FEE58FF4F16
:10041000A591B4918FB7F894EC91111108C0D095C3
:10042000DE23DC938FBFDF91CF911F910895DE2BE8
:10043000F8CFCF93DF9390E0FC01E656FF4F249175
:100440008A579F4FFC0184918823D1F090E0880F58
:10045000991FFC01E859FF4FA591B491FC01EE589A
:10046000FF4FC591D49161110EC09FB7F8948C9144
:10047000E22FE0958E238C932881E223E8839FBFAF
:10048000DF91CF9108958FB7F894EC91E22BEC9324
:100490008FBFF6CF1F93CF93DF93182FEB0161E04F
:1004A0000E941902209739F460E0812FDF91CF91EB
:1004B0001F910C94EB01CF3FD10511F461E0F5CF12
:1004C000E12FF0E0E255FF4FE491E33031F140F4E9
:1004D000E130B1F0E230E1F0C038D1057CF7E4CF93
:1004E000E73029F1E83059F1E430B1F7809180002C
:1004F000806280938000D0938B00C0938A0004C0F8
:1005000084B5806884BDC7BDDF91CF911F910895E8
:1005100084B5806284BDC8BDF7CF809180008068BB
:1005200080938000D0938900C0938800EDCF8091A4
:10053000B00080688093B000C093B300E5CF809195
:10054000B00080628093B000C093B400DDCF3FB7AD
:10055000F8948091570190915801A0915901B09160
:100560005A0126B5A89B05C02F3F19F00196A11D81
:10057000B11D3FBFBA2FA92F982F8827BC01CD01ED
:10058000620F711D811D911D42E0660F771F881F4C
:10059000991F4A95D1F708958F929F92AF92BF927B
:1005A000CF92DF92EF92FF924B015C010E94A70273
:1005B0006B017C010E94A7026C197D098E099F09BD
:1005C000683E734081059105A8F321E0821A9108E5
:1005D000A108B10888EEC80E83E0D81EE11CF11C0A
:1005E00081149104A104B10429F7FF90EF90DF90EA
:1005F000CF90BF90AF909F908F900895FC01019095
:100600000020E9F73197AF01481B590BBC0181E687
:1006100091E00C948C008F929F92AF92BF920F93B7
:100620001F93CF93DF93CDB7DEB7A1970FB6F894A2
:10063000DEBF0FBECDBF19A2423008F44AE08E01E2
:100640000F5D1F4F842E912CB12CA12CA50194017C
:100650000E942F0AE62FB901CA01EA30F4F4E05DE6
:10066000D801EE938D01232B242B252B79F790E0D5
:1006700080E0109719F0CD010E94FE02A1960FB6FE
:10068000F894DEBF0FBECDBFDF91CF911F910F91C8
:10069000BF90AF909F908F900895E95CE1CFCF938A
:1006A000DF930E94FE02EC0182E191E00E94FE02D3
:1006B0008C0F9D1FDF91CF9108950F931F93CF93C0
:1006C000DF93EC018B01072E000C880B990B0E9425
:1006D00008092DEC3CEC4CE85FE30E94BD090E9448
:1006E000D0088AE00E944A02B8018BE00E944A02C8
:1006F000C230D10571F144F42197C9F089E291E04B
:100700000E944F0360E00AC0C330D105D1F12497A5
:10071000A9F783E291E00E944F0361E082E00E942A
:10072000EB0160E083E00E94EB0160E00DC085E139
:1007300091E00E944F0361E082E00E94EB0160E0E3
:1007400083E00E94EB0161E084E00E94EB0160E045
:1007500011C089E191E00E944F0360E082E00E94B5
:10076000EB0161E083E00E94EB0160E084E00E9425
:10077000EB0161E085E0DF91CF911F910F910C9427
:10078000EB018EE191E00E944F0360E0D5CF4F92E4
:100790005F926F927F928F929F92AF92BF92CF9211
:1007A000DF92EF92FF926B017C01AC019B010E94F2
:1007B0002A0A8823C1F08EE291E00E94FE027C01A9
:1007C00082E191E00E94FE028E0D9F1DFF90EF904E
:1007D000DF90CF90BF90AF909F908F907F906F9061
:1007E0005F904F90089546015701E894B7F82FEFB6
:1007F0003FEF4FE75FE7C501B4010E942A0A81116C
:100800000DC02FEF3FEF4FE75FE7C501B4010E9436
:10081000CB0818161CF482E391E0CFCF2FEF3FEF07
:100820004FE75FE4C701B6010E94B80918161CF42F
:1008300086E391E0C2CF2FEF3FEF4FE75FECC701B8
:10084000B6010E94CB0887FDF3CF20E030E0A9017C
:10085000C701B6010E94CB08B12CA12C87FF0AC0AA
:100860006DE281E691E00E942C015C01F7FAF094C0
:10087000F7F8F0942AE037ED43EA5BE3C701B601ED
:100880000E945F082B013C010E94D7086B017C018C
:100890000E9406099B01AC01C301B2010E945E08DF
:1008A0002B013C014AE0C701B6010E940B037C0109
:1008B000EA0CFB1C6EE281E691E00E942C01E80E3E
:1008C000F91E20E030E040E251E4C301B2010E9491
:1008D000BD092B013C010E94D7084B01B12CA12C72
:1008E0004AE0C501B4010E940B03E80EF91EC501E0
:1008F000B4010E9406099B01AC01C301B2010E9430
:100900005E0820E030E040E251E40E94BD090E9410
:10091000D70890E080E04AE00E940B03E80EF91E41
:100920004FCFFF920F931F93CF93DF93F82EEB01DE
:1009300061E00E94EB0103E210E0C8010197F1F7CA
:1009400060E08F2D0E94EB01C8010197F1F7FE01D5
:10095000E656FF4F6491FE01EA57FF4FE491F0E045
:10096000EE0FFF1FE458FF4F8591949100E412E4CD
:100970002FE030E0462F0E947D056115710581054D
:10098000910529F06F5F7F4F8F4F9F4F9F700E949F
:10099000080926E933E44BE05DE30E94BD0920E04D
:1009A00030E040E05FE30E94BD09DF91CF911F91ED
:1009B0000F91FF9008951F920F920FB60F9211247E
:1009C0002F933F934F935F936F937F938F939F9357
:1009D000AF93BF93EF93FF9381E691E00E940A01EA
:1009E000FF91EF91BF91AF919F918F917F916F9107
:1009F0005F914F913F912F910F900FBE0F901F90DD
:100A000018951F920F920FB60F9211242F938F9368
:100A10009F93EF93FF93E0917101F09172018081B8
:100A2000E0917701F091780182FD1BC09081809167
:100A30007A018F5F8F7320917B01821741F0E091E3
:100A40007A01F0E0EF59FE4F958F80937A01FF9184
:100A5000EF919F918F912F910F900FBE0F901F904C
:100A600018958081F4CF1F920F920FB60F92112428
:100A70002F933F938F939F93AF93BF938091530195
:100A800090915401A0915501B091560130915201BD
:100A900023E0230F2D3758F50196A11DB11D20939A
:100AA00052018093530190935401A0935501B09348
:100AB00056018091570190915801A0915901B09130
:100AC0005A010196A11DB11D8093570190935801C1
:100AD000A0935901B0935A01BF91AF919F918F910B
:100AE0003F912F910F900FBE0F901F90189526E801
:100AF000230F0296A11DB11DD2CFCF92DF92EF92AC
:100B0000FF920F931F93E82FF92F05C00150110991
:100B10002109310961F1908196239417B9F305C039
:100B2000015011092109310911F190819623941383
:100B3000F7CFC12CD12CE12CF12C0AC08FEFC81AB1
:100B4000D80AE80AF80A0C151D052E053F0579F0AC
:100B500080818623841791F36C2D7D2D8E2D9F2D02
:100B60001F910F91FF90EF90DF90CF90089560E07C
:100B700070E080E090E01F910F91FF90EF90DF9088
:100B8000CF900895789484B5826084BD84B58160E7
:100B900084BD85B5826085BD85B5816085BD809148
:100BA0006E00816080936E001092810080918100C0
:100BB00082608093810080918100816080938100B8
:100BC000809180008160809380008091B10084607A
:100BD0008093B1008091B00081608093B0008091DB
:100BE0007A00846080937A0080917A00826080939A
:100BF0007A0080917A00816080937A0080917A00F7
:100C0000806880937A001092C10061E082E00E94C7
:100C1000190261E083E00E94190261E084E00E9411
:100C2000190261E085E00E94190261E08AE00E94F9
:100C3000190261E08BE00E94190261E080E10E94EC
:100C4000190260E081E10E94190261E082E10E94E4
:100C5000190260E083E10E94190261E08EE00E94C7
:100C6000190260E08FE00E94190260E087E00E94B4
:100C7000190260E088E00E94190260E086E00E94AC
:100C8000190260E089E00E94190261E08CE00E9494
:100C90001902E0917101F091720182E08083E0918C
:100CA0006D01F0916E011082E0916F01F091700181
:100CB0008FEC808310927901E0917501F0917601BB
:100CC00086E08083E0917301F091740180818061FE
:100CD0008083E0917301F09174018081886080834A
:100CE000E0917301F0917401808180688083E091CC
:100CF0007301F091740180818F7D8083F12CE12C50
:100D000087E00E94C201EC019093600180935F0133
:100D100088E00E94C2018C0190935E0180935D0186
:100D200086E00E94C2016C0190935C0180935B019C
:100D300089E00E94C201C114D10409F013C12097B7
:100D400009F0FAC00115110509F0DEC0009709F09D
:100D5000DBC02EEFE2162FEFF20609F0C8C06EE6F8
:100D600070E083E090E00E945D03CEEFDFEF81E66C
:100D700091E00E94EA00892B09F416C181E691E016
:100D80000E94C800833409F00FC170E060E090E079
:100D900080E00E945D0361E170E080E190E00E94EC
:100DA00091046B017C0163E170E082E190E00E94BC
:100DB00091042B013C016FE070E08EE090E00E9416
:100DC00091044B015C01C701B6010E94C703C30136
:100DD000B2010E94C703C501B4010E94C70320E00D
:100DE00030E040E251E4C301B2010E94CB0887FF2A
:100DF00018C064E670E082E090E00E945D0362E368
:100E000070E080E090E00E94CC0270E060E090E052
:100E100080E00E945D0362E370E080E090E00E9469
:100E2000CC0220E030E040EA51E4C701B6010E9464
:100E3000CB0887FD0AC020E030E040EA51E4C5015C
:100E4000B4010E94CB0887FFCAC0A5019401C70165
:100E5000B6010E94B80968E770E018160CF0BCC033
:100E600084E090E00E945D0364E170E080E090E047
:100E70000E94CC0270E060E090E080E00E945D03A0
:100E800064E170E080E090E00E94CC0287E491E0B1
:100E90000E944F0381E691E00E94EA00892B09F449
:100EA0007ACF81E691E00E94C800833409F073CFC5
:100EB00070E060E090E080E00E945D0381E691E0F8
:100EC0000E94EA00892BD1F381E691E00E94C800DC
:100ED000863409F493C00CF087C0813409F498C0BB
:100EE000823431F766E970E082E090E0E5CF82E09D
:100EF000E816F10471F56EE670E084E090E00E947F
:100F00005D03C2E0D0E033CF0230110508F02FCFEF
:100F10008130910509F423CF0130110509F027CF65
:100F2000892B09F024CF6EE670E083E090E00E9408
:100F30005D03CFEFDFEF1BCFC130D10581F401306E
:100F4000110509F074C08130910509F408CF892B8F
:100F500031F460E570E081E090E00E945D03D0E054
:100F6000C0E005CFCA94CD28D1F7C230D10508F032
:100F70006AC00115110541F0C130D10509F063C007
:100F80000130110509F06AC0009709F063C0B3CFC2
:100F90000130110509F0EBCE029708F0E8CE70E0C1
:100FA00060E090E080E0D9CF64E170E080E090E024
:100FB0000E94CC0270E060E090E080E00E945D035F
:100FC00064E170E080E090E00E94CC028AE391E06E
:100FD0000E944F037E0194CE83E090E043CF6AE508
:100FE00070E081E090E04ACF8C3469F0823509F0FE
:100FF0005FCF64E670E084E090E05ECF68EC70E084
:1010000081E090E059CF66E970E083E090E054CF52
:1010100061E08CE00E94EB0160ED77E080E090E021
:101020000E94CC0260E08CE00E94EB0147CF012BD4
:1010300009F095CF009771F46EE670E084E090E0DF
:101040000E945D0394CE209709F089CF0115110508
:1010500009F09ECF019709F082CFA1CF012BD1F3E8
:101060007ECFE1E6F1E01382128288EE93E0A0E009
:10107000B0E084839583A683B78384E091E0918375
:10108000808385EC90E09587848784EC90E0978757
:10109000868780EC90E0918B808B81EC90E0938B45
:1010A000828B82EC90E0958B848B86EC90E0978B22
:1010B000868B118E128E138E148E08955058BB2776
:1010C000AA270E9476080C947E090E94700938F0C5
:1010D0000E94770920F039F49F3F19F426F40C940C
:1010E0006D090EF4E095E7FB0C946709E92F0E9467
:1010F0008F0958F3BA17620773078407950720F022
:1011000079F4A6F50C94B1090EF4E0950B2EBA2FE4
:10111000A02D0B01B90190010C01CA01A0011124FD
:10112000FF27591B99F0593F50F4503E68F11A16A9
:10113000F040A22F232F342F4427585FF3CF46953A
:1011400037952795A795F0405395C9F77EF41F165C
:10115000BA0B620B730B840BBAF09150A1F0FF0F26
:10116000BB1F661F771F881FC2F70EC0BA0F621F12
:10117000731F841F48F4879577956795B795F79502
:101180009E3F08F0B0CF9395880F08F09927EE0F97
:101190009795879508950E94430908F481E0089582
:1011A0000E94D7086894B1110C94B20908950E9466
:1011B000970988F09F5798F0B92F9927B751B0F049
:1011C000E1F0660F771F881F991F1AF0BA95C9F7CB
:1011D00014C0B13091F00E94B109B1E008950C94AF
:1011E000B109672F782F8827B85F39F0B93FCCF362
:1011F000869577956795B395D9F73EF49095809548
:10120000709561957F4F8F4F9F4F0895E89409C067
:1012100097FB3EF490958095709561957F4F8F4F29
:101220009F4F9923A9F0F92F96E9BB279395F6953F
:10123000879577956795B795F111F8CFFAF4BB0FBD
:1012400011F460FF1BC06F5F7F4F8F4F9F4F16C021
:10125000882311F096E911C0772321F09EE8872FAB
:10126000762F05C0662371F096E8862F70E060E067
:101270002AF09A95660F771F881FDAF7880F9695E0
:10128000879597F90895990F0008550FAA0BE0E884
:10129000FEEF16161706E807F907C0F01216130638
:1012A000E407F50798F0621B730B840B950B39F478
:1012B0000A2661F0232B242B252B21F408950A26DE
:1012C00009F4A140A6958FEF811D811D089597F91E
:1012D0009F6780E870E060E008959FEF80EC0895DC
:1012E00000240A9416161706180609060895002405
:1012F0000A9412161306140605060895092E03947F
:10130000000C11F4882352F0BB0F40F4BF2B11F4F2
:1013100060FF04C06F5F7F4F8F4F9F4F089557FD51
:101320009058440F551F59F05F3F71F04795880F53
:1013300097FB991F61F09F3F79F0879508951216EA
:1013400013061406551FF2CF4695F1DF08C0161696
:1013500017061806991FF1CF869571056105089447
:101360000895E894BB2766277727CB0197F908955E
:101370000E94430908F48FEF08950E94D0090C944D
:101380007E090E94700938F00E94770920F09523A9
:1013900011F00C9467090C946D0911240C94B20996
:1013A0000E948F0970F3959FC1F3950F50E0551F70
:1013B000629FF001729FBB27F00DB11D639FAA27AA
:1013C000F00DB11DAA1F649F6627B00DA11D661FF9
:1013D000829F2227B00DA11D621F739FB00DA11D1A
:1013E000621F839FA00D611D221F749F3327A00DD4
:1013F000611D231F849F600D211D822F762F6A2F70
:1014000011249F5750409AF0F1F088234AF0EE0FD4
:10141000FF1FBB1F661F771F881F91505040A9F701
:101420009E3F510580F00C9467090C94B2095F3F10
:10143000E4F3983ED4F3869577956795B795F7953D
:10144000E7959F5FC1F7FE2B880F911D96958795B5
:1014500097F908950E944309880B990B0895A1E21A
:101460001A2EAA1BBB1BFD010DC0AA1FBB1FEE1F1E
:10147000FF1FA217B307E407F50720F0A21BB30B69
:10148000E40BF50B661F771F881F991F1A9469F7E5
:1014900060957095809590959B01AC01BD01CF0141
:1014A0000895EE0FFF1F0590F491E02D0994F89434
:1014B000FFCF000000002C018C00B9007901EA0088
:1014C000C800DC000D0A0052554E004241434B005B
:1014D0004C4546540052494748540053544F50001D
:1014E0006E616E00696E66006F766600E7BAA2E50F
:1014F000A496E5BEAAE8BFB900E8B685E5A3B0E6C4
:04150000B3A2000092
:107E0000112484B714BE81FFF0D085E080938100F7
:107E100082E08093C00088E18093C10086E0809377
:107E2000C20080E18093C4008EE0C9D0259A86E02C
:107E300020E33CEF91E0309385002093840096BBD3
:107E4000B09BFECF1D9AA8958150A9F7CC24DD24C4
:107E500088248394B5E0AB2EA1E19A2EF3E0BF2EE7
:107E6000A2D0813461F49FD0082FAFD0023811F036
:107E7000013811F484E001C083E08DD089C08234E0
:107E800011F484E103C0853419F485E0A6D080C0E4
:107E9000853579F488D0E82EFF2485D0082F10E0AE
:107EA000102F00270E291F29000F111F8ED06801E7
:107EB0006FC0863521F484E090D080E0DECF843638
:107EC00009F040C070D06FD0082F6DD080E0C81688
:107ED00080E7D80618F4F601B7BEE895C0E0D1E017
:107EE00062D089930C17E1F7F0E0CF16F0E7DF06D8
:107EF00018F0F601B7BEE89568D007B600FCFDCFD4
:107F0000A601A0E0B1E02C9130E011968C91119780
:107F100090E0982F8827822B932B1296FA010C0160
:107F200087BEE89511244E5F5F4FF1E0A038BF0790
:107F300051F7F601A7BEE89507B600FCFDCF97BE46
:107F4000E89526C08437B1F42ED02DD0F82E2BD052
:107F50003CD0F601EF2C8F010F5F1F4F84911BD097
:107F6000EA94F801C1F70894C11CD11CFA94CF0C13
:107F7000D11C0EC0853739F428D08EE10CD085E9AC
:107F80000AD08FE07ACF813511F488E018D01DD067
:107F900080E101D065CF982F8091C00085FFFCCF94
:107FA0009093C60008958091C00087FFFCCF809118
:107FB000C00084FD01C0A8958091C6000895E0E648
:107FC000F0E098E1908380830895EDDF803219F02E
:107FD00088E0F5DFFFCF84E1DECF1F93182FE3DFCA
:107FE0001150E9F7F2DF1F91089580E0E8DFEE27F6
:047FF000FF270994CA
:027FFE00040479
:00000001FF
